{
  "_format": "hh-sol-artifact-1",
  "contractName": "AttestationStation",
  "sourceName": "contracts/AttestationStation.sol",
  "abi": [
    {
      "inputs": [],
      "stateMutability": "nonpayable",
      "type": "constructor"
    },
    {
      "anonymous": false,
      "inputs": [
        {
          "indexed": true,
          "internalType": "address",
          "name": "creator",
          "type": "address"
        },
        {
          "indexed": true,
          "internalType": "address",
          "name": "about",
          "type": "address"
        },
        {
          "indexed": true,
          "internalType": "bytes32",
          "name": "key",
          "type": "bytes32"
        },
        {
          "indexed": false,
          "internalType": "bytes",
          "name": "val",
          "type": "bytes"
        }
      ],
      "name": "AttestationCreated",
      "type": "event"
    },
    {
      "inputs": [
        {
          "components": [
            {
              "internalType": "address",
              "name": "about",
              "type": "address"
            },
            {
              "internalType": "bytes32",
              "name": "key",
              "type": "bytes32"
            },
            {
              "internalType": "bytes",
              "name": "val",
              "type": "bytes"
            }
          ],
          "internalType": "struct AttestationStation.AttestationData[]",
          "name": "_attestations",
          "type": "tuple[]"
        }
      ],
      "name": "attest",
      "outputs": [],
      "stateMutability": "nonpayable",
      "type": "function"
    },
    {
      "inputs": [
        {
          "internalType": "address",
          "name": "_about",
          "type": "address"
        },
        {
          "internalType": "bytes32",
          "name": "_key",
          "type": "bytes32"
        },
        {
          "internalType": "bytes",
          "name": "_val",
          "type": "bytes"
        }
      ],
      "name": "attest",
      "outputs": [],
      "stateMutability": "nonpayable",
      "type": "function"
    },
    {
      "inputs": [
        {
          "internalType": "address",
          "name": "",
          "type": "address"
        },
        {
          "internalType": "address",
          "name": "",
          "type": "address"
        },
        {
          "internalType": "bytes32",
          "name": "",
          "type": "bytes32"
        }
      ],
      "name": "attestations",
      "outputs": [
        {
          "internalType": "bytes",
          "name": "",
          "type": "bytes"
        }
      ],
      "stateMutability": "view",
      "type": "function"
    },
    {
      "inputs": [],
      "name": "version",
      "outputs": [
        {
          "internalType": "string",
          "name": "",
          "type": "string"
        }
      ],
      "stateMutability": "view",
      "type": "function"
    }
  ],
  "bytecode": "0x60e060405234801561001057600080fd5b50600180600082608081815250508160a081815250508060c0818152505050505060805160a05160c051610f5b61006060003960006101ea015260006101c1015260006101980152610f5b6000f3fe608060405234801561001057600080fd5b506004361061004c5760003560e01c806329b42cb51461005157806354fd4d50146100815780635eb5ea101461009f578063702b9dee146100bb575b600080fd5b61006b60048036038101906100669190610670565b6100d7565b604051610078919061075c565b60405180910390f35b610089610191565b60405161009691906107d3565b60405180910390f35b6100b960048036038101906100b4919061085a565b610234565b005b6100d560048036038101906100d091906109d7565b6102a2565b005b60006020528260005260406000206020528160005260406000206020528060005260406000206000925092505050805461011090610a75565b80601f016020809104026020016040519081016040528092919081815260200182805461013c90610a75565b80156101895780601f1061015e57610100808354040283529160200191610189565b820191906000526020600020905b81548152906001019060200180831161016c57829003601f168201915b505050505081565b60606101bc7f00000000000000000000000000000000000000000000000000000000000000006103a7565b6101e57f00000000000000000000000000000000000000000000000000000000000000006103a7565b61020e7f00000000000000000000000000000000000000000000000000000000000000006103a7565b60405160200161022093929190610b2e565b604051602081830303815290604052905090565b600082829050905060005b8181101561029c57600084848381811061025c5761025b610b75565b5b905060200281019061026e9190610ba9565b61027790610c5b565b90506102908160000151826020015183604001516102a2565b8160010191505061023f565b50505050565b806000803373ffffffffffffffffffffffffffffffffffffffff1673ffffffffffffffffffffffffffffffffffffffff16815260200190815260200160002060008573ffffffffffffffffffffffffffffffffffffffff1673ffffffffffffffffffffffffffffffffffffffff1681526020019081526020016000206000848152602001908152602001600020908161033b9190610e24565b50818373ffffffffffffffffffffffffffffffffffffffff163373ffffffffffffffffffffffffffffffffffffffff167f28710dfecab43d1e29e02aa56b2e1e610c0bae19135c9cf7a83a1adb6df96d858460405161039a919061075c565b60405180910390a4505050565b6060600060016103b684610475565b01905060008167ffffffffffffffff8111156103d5576103d46108ac565b5b6040519080825280601f01601f1916602001820160405280156104075781602001600182028036833780820191505090505b509050600082602001820190505b60011561046a578080600190039150507f3031323334353637383961626364656600000000000000000000000000000000600a86061a8153600a858161045e5761045d610ef6565b5b04945060008503610415575b819350505050919050565b600080600090507a184f03e93ff9f4daa797ed6e38ed64bf6a1f01000000000000000083106104d3577a184f03e93ff9f4daa797ed6e38ed64bf6a1f01000000000000000083816104c9576104c8610ef6565b5b0492506040810190505b6d04ee2d6d415b85acef81000000008310610510576d04ee2d6d415b85acef8100000000838161050657610505610ef6565b5b0492506020810190505b662386f26fc10000831061053f57662386f26fc10000838161053557610534610ef6565b5b0492506010810190505b6305f5e1008310610568576305f5e100838161055e5761055d610ef6565b5b0492506008810190505b612710831061058d57612710838161058357610582610ef6565b5b0492506004810190505b606483106105b057606483816105a6576105a5610ef6565b5b0492506002810190505b600a83106105bf576001810190505b80915050919050565b6000604051905090565b600080fd5b600080fd5b600073ffffffffffffffffffffffffffffffffffffffff82169050919050565b6000610607826105dc565b9050919050565b610617816105fc565b811461062257600080fd5b50565b6000813590506106348161060e565b92915050565b6000819050919050565b61064d8161063a565b811461065857600080fd5b50565b60008135905061066a81610644565b92915050565b600080600060608486031215610689576106886105d2565b5b600061069786828701610625565b93505060206106a886828701610625565b92505060406106b98682870161065b565b9150509250925092565b600081519050919050565b600082825260208201905092915050565b60005b838110156106fd5780820151818401526020810190506106e2565b8381111561070c576000848401525b50505050565b6000601f19601f8301169050919050565b600061072e826106c3565b61073881856106ce565b93506107488185602086016106df565b61075181610712565b840191505092915050565b600060208201905081810360008301526107768184610723565b905092915050565b600081519050919050565b600082825260208201905092915050565b60006107a58261077e565b6107af8185610789565b93506107bf8185602086016106df565b6107c881610712565b840191505092915050565b600060208201905081810360008301526107ed818461079a565b905092915050565b600080fd5b600080fd5b600080fd5b60008083601f84011261081a576108196107f5565b5b8235905067ffffffffffffffff811115610837576108366107fa565b5b602083019150836020820283011115610853576108526107ff565b5b9250929050565b60008060208385031215610871576108706105d2565b5b600083013567ffffffffffffffff81111561088f5761088e6105d7565b5b61089b85828601610804565b92509250509250929050565b600080fd5b7f4e487b7100000000000000000000000000000000000000000000000000000000600052604160045260246000fd5b6108e482610712565b810181811067ffffffffffffffff82111715610903576109026108ac565b5b80604052505050565b60006109166105c8565b905061092282826108db565b919050565b600067ffffffffffffffff821115610942576109416108ac565b5b61094b82610712565b9050602081019050919050565b82818337600083830152505050565b600061097a61097584610927565b61090c565b905082815260208101848484011115610996576109956108a7565b5b6109a1848285610958565b509392505050565b600082601f8301126109be576109bd6107f5565b5b81356109ce848260208601610967565b91505092915050565b6000806000606084860312156109f0576109ef6105d2565b5b60006109fe86828701610625565b9350506020610a0f8682870161065b565b925050604084013567ffffffffffffffff811115610a3057610a2f6105d7565b5b610a3c868287016109a9565b9150509250925092565b7f4e487b7100000000000000000000000000000000000000000000000000000000600052602260045260246000fd5b60006002820490506001821680610a8d57607f821691505b602082108103610aa057610a9f610a46565b5b50919050565b600081905092915050565b6000610abc8261077e565b610ac68185610aa6565b9350610ad68185602086016106df565b80840191505092915050565b7f2e00000000000000000000000000000000000000000000000000000000000000600082015250565b6000610b18600183610aa6565b9150610b2382610ae2565b600182019050919050565b6000610b3a8286610ab1565b9150610b4582610b0b565b9150610b518285610ab1565b9150610b5c82610b0b565b9150610b688284610ab1565b9150819050949350505050565b7f4e487b7100000000000000000000000000000000000000000000000000000000600052603260045260246000fd5b600080fd5b600082356001606003833603038112610bc557610bc4610ba4565b5b80830191505092915050565b600080fd5b600080fd5b600060608284031215610bf157610bf0610bd1565b5b610bfb606061090c565b90506000610c0b84828501610625565b6000830152506020610c1f8482850161065b565b602083015250604082013567ffffffffffffffff811115610c4357610c42610bd6565b5b610c4f848285016109a9565b60408301525092915050565b6000610c673683610bdb565b9050919050565b60008190508160005260206000209050919050565b60006020601f8301049050919050565b600082821b905092915050565b600060088302610cd07fffffffffffffffffffffffffffffffffffffffffffffffffffffffffffffffff82610c93565b610cda8683610c93565b95508019841693508086168417925050509392505050565b6000819050919050565b6000819050919050565b6000610d21610d1c610d1784610cf2565b610cfc565b610cf2565b9050919050565b6000819050919050565b610d3b83610d06565b610d4f610d4782610d28565b848454610ca0565b825550505050565b600090565b610d64610d57565b610d6f818484610d32565b505050565b5b81811015610d9357610d88600082610d5c565b600181019050610d75565b5050565b601f821115610dd857610da981610c6e565b610db284610c83565b81016020851015610dc1578190505b610dd5610dcd85610c83565b830182610d74565b50505b505050565b600082821c905092915050565b6000610dfb60001984600802610ddd565b1980831691505092915050565b6000610e148383610dea565b9150826002028217905092915050565b610e2d826106c3565b67ffffffffffffffff811115610e4657610e456108ac565b5b610e508254610a75565b610e5b828285610d97565b600060209050601f831160018114610e8e5760008415610e7c578287015190505b610e868582610e08565b865550610eee565b601f198416610e9c86610c6e565b60005b82811015610ec457848901518255600182019150602085019450602081019050610e9f565b86831015610ee15784890151610edd601f891682610dea565b8355505b6001600288020188555050505b505050505050565b7f4e487b7100000000000000000000000000000000000000000000000000000000600052601260045260246000fdfea264697066735822122084db60a15f8613cdeb092399e9d1aa109a03fe652aac11ea8df1604974d8139f64736f6c634300080f0033",
  "linkReferences": {},
  "deployedLinkReferences": {}
}