{
  "abi": [
    {
      "inputs": [],
      "name": "revert",
      "outputs": [],
      "stateMutability": "nonpayable",
      "type": "function"
    }
  ],
  "bytecode": {
    "object": "0x6080604052348015600f57600080fd5b5060b78061001e6000396000f3fe6080604052348015600f57600080fd5b506004361060285760003560e01c80637da3c3ab14602d575b600080fd5b60336035565b005b60405162461bcd60e51b815260206004820152601760248201527f66616c73652069732066616c73652120416d617a696e21000000000000000000604482015260640160405180910390fdfea2646970667358221220f753c17be5260204526ed6c0ccd8b0a5363a088f0a136a0b5420461547df25b564736f6c634300080d0033",
    "linkReferences": {}
  },
  "methodIdentifiers": {
    "revert()": "7da3c3ab"
  },
  "id": 1
}